:100000000C94DB000C9403010C9403010C94030189
:100010000C9403010C9403010C9403010C94030150
:100020000C9403010C9403010C9403010C94040739
:100030000C9403010C9403010C9403010C94030130
:100040000C9462060C9403010C94D2060C94AC063A
:100050000C9403010C9403010C9403010C94030110
:100060000C9403010C94030100407A10F35A00A091
:10007000724E18090010A5D4E80000E87648170071
:1000800000E40B54020000CA9A3B000000E1F505B1
:10009000000080969800000040420F000000A086FB
:1000A00001000000102700000000E803000000002D
:1000B0006400000000000A000000000001000000D1
:1000C00000002C76D888DC674F0823DFC1DFAE59EB
:1000D000E1B1B796E5E3E453C63AE651997696E87E
:1000E000E6C28426EB898C9B62ED407C6FFCEFBC02
:1000F0009C9F40F2BAA56FA5F490055A2AF75C932D
:100100006B6CF9676DC11BFCE0E40D47FEF520E662
:10011000B500D0ED902E0300943577050080841E45
:10012000080000204E0A000000C80C333333330FA0
:10013000986E12831141EF8D2114893BE65516CF3D
:10014000FEE6DB18D1844B381BF77C1D901DA4BB49
:10015000E424203284725E228100C9F124ECA1E5FE
:100160003D27000000080002010000030407000012
:1001700000000000000000000000250028002B0007
:1001800000000000240027002A00040404040404E2
:100190000404020202020202030303030303010236
:1001A0000408102040800102040810200102040805
:1001B0001020D107710C11241FBECFEFD8E0DEBF95
:1001C000CDBF24E0A4EAB2E001C01D92A532B2077F
:1001D000E1F712E0A0E0B1E0EAE2F7E202C0059048
:1001E0000D92A43AB107D9F710E0CAEDD0E004C0EF
:1001F0002197FE010E947611C93DD107C9F70E94DF
:1002000003080C9488130C94000090E0FC01E25663
:10021000FE4F249186579E4FFC018491882399F0CC
:1002200090E0880F991FFC01E058FE4FA591B49112
:10023000FC01EA58FE4F859194918FB7F894EC91A8
:10024000E22BEC938FBF0895E4E6F1E02491E0EA1D
:10025000F1E09491ECE8F1E0E491EE23C9F022237F
:1002600039F0233001F1A8F4213019F1223029F1BD
:10027000F0E0EE0FFF1FEA58FE4FA591B4912FB7A3
:10028000F894EC91811126C090959E239C932FBFEA
:1002900008952730A9F02830C9F0243049F720917B
:1002A00080002F7D03C0209180002F772093800055
:1002B000DFCF24B52F7724BDDBCF24B52F7DFBCF37
:1002C0002091B0002F772093B000D2CF2091B000C2
:1002D0002F7DF9CF9E2BDACF3FB7F894809175032D
:1002E00090917603A0917703B091780326B5A89BEF
:1002F00005C02F3F19F00196A11DB11D3FBFBA2FB8
:10030000A92F982F8827BC01CD01620F711D811D77
:10031000911D42E0660F771F881F991F4A95D1F7FC
:1003200008958F929F92AF92BF92CF92DF92EF92F9
:10033000FF920E946C014B015C0188EEC82E83E0A5
:10034000D82EE12CF12C0E946C01681979098A09D8
:100350009B09683E734081059105A8F321E0C21A0C
:10036000D108E108F10888EE880E83E0981EA11CF0
:10037000B11CC114D104E104F10429F7FF90EF90FE
:10038000DF90CF90BF90AF909F908F900895089589
:10039000AF92BF92CF92DF92EF92FF920F931F9393
:1003A000CF93DF936C017B018B01040F151FEB01D1
:1003B0005E01AE18BF08C017D10759F06991D60188
:1003C000ED91FC910190F081E02DC6010995892BFA
:1003D00079F7C501DF91CF911F910F91FF90EF90B9
:1003E000DF90CF90BF90AF900895FC01918D828DEA
:1003F000981761F0A28DAE0FBF2FB11D5D968C9145
:10040000928D9F5F9F73928F90E008958FEF9FEF83
:1004100008952FB7F8948091790390917A03A09171
:100420007B03B0917C032FBF809386039093870357
:10043000A0938803B09389038EE793E00E94F501AF
:1004400097FF26C02FB7F8948091790390917A0393
:10045000A0917B03B0917C032FBF40918603509104
:1004600087036091880370918903841B950BA60B09
:10047000B70B409182035091830360918403709184
:10048000850384179507A607B707B0F28FEF9FEF94
:100490000895FC01918D828D981731F0828DE80FBF
:1004A000F11D858D90E008958FEF9FEF0895FC0179
:1004B000918D228D892F90E0805C9F4F821B910946
:1004C0008F73992708958EE793E00E94570221E0E9
:1004D000892B09F420E0822F089580E090E0892B99
:1004E00029F00E94630281110C9400000895FC0120
:1004F000A48DA80FB92FB11DA35ABF4F2C91848D85
:1005000090E001968F739927848FA689B7892C93E1
:10051000A089B1898C9180648C93938D848D98137C
:1005200006C00288F389E02D80818F7D8083089545
:10053000EF92FF920F931F93CF93DF93EC0181E033
:10054000888F9B8D8C8D981316C0E889F9898081DE
:1005500085FF11C0EE89FF896083E889F989808170
:100560008064808381E090E0DF91CF911F910F91B3
:10057000FF90EF900895F62E0B8D10E00F5F1F4F48
:100580000F731127E02E8C8D8E110CC00FB607FC57
:10059000FACFE889F989808185FFF5CFCE010E94E5
:1005A0007702F1CFEB8DEC0FFD2FF11DE35AFF4FDA
:1005B000F0820B8FEA89FB8980818062D2CFCF9352
:1005C000DF93EC01888D8823B9F0AA89BB89E8897B
:1005D000F9898C9185FD03C0808186FD0DC00FB621
:1005E00007FCF7CF8C9185FFF2CF808185FFEDCF9F
:1005F000CE010E947702E9CFDF91CF910895FC01EF
:1006000001900020E9F73197AF01481B590BBC015D
:100610008EE793E00C94C8018F929F92AF92BF92A5
:100620000F931F93CF93DF93CDB7DEB7A1970FB68C
:10063000F894DEBF0FBECDBF19A2423008F44AE0E5
:100640008E010F5D1F4F842E912CB12CA12CA50182
:1006500094010E943C11E62FB901CA01EA30F4F47A
:10066000E05DD801EE938D01232B242B252B79F708
:1006700090E080E0109719F0CD010E94FF02A19652
:100680000FB6F894DEBF0FBECDBFDF91CF911F91A3
:100690000F91BF90AF909F908F900895E95CE1CF4C
:1006A000CF92DF92EF92FF92CF93DF936B017C01A9
:1006B0006DE28EE793E00E949802EC0166277727AF
:1006C000CB016C197D098E099F094AE00E940C0339
:1006D0008C0F9D1FDF91CF91FF90EF90DF90CF9017
:1006E0000895AB01BC01990F880B990B4A30510555
:1006F00021F44AE097FD0C9450030C940C030C94E5
:10070000FF0284E391E00C94FF02CF93DF936AE051
:1007100070E00E947103EC010E9481038C0F9D1F09
:10072000DF91CF910895CF93DF93FC0144815581F0
:10073000608171818EE793E00E94C801EC010E9404
:1007400081038C0F9D1FDF91CF910895CF93DF938D
:100750000E94FF02EC010E9481038C0F9D1FDF911C
:10076000CF910895109268031092690310926A0362
:1007700010926B0387E391E00E94A60390E080E073
:10078000089510926403109265031092660310920C
:10079000670384E491E00E94A60390E080E008955E
:1007A00010926C0310926D0310926E0310926F03FF
:1007B00083E591E00E94A60390E080E00895109206
:1007C000600310926103109262031092630381E64A
:1007D00091E00E94A60390E080E0089510927003DB
:1007E00010927103109272031092730383E791E0E9
:1007F0000E94A60390E080E00895CF93DF932091BC
:100800001F0430912004232B89F0FC01C0911B04AC
:10081000D0911C0460817181CE010E946E130097FB
:1008200029F08C1B9D0BDF91CF9108958FEF9FEFE7
:10083000FACF0F931F93CF93DF93EC0188819981B7
:10084000009759F02A813B812617370730F081E065
:10085000DF91CF911F910F9108958B016F5F7F4FB3
:100860000E94A112009759F0998388831B830A8301
:100870002C813D81232B59F7FC011082E8CF80E0C9
:10088000E7CFEF92FF920F931F93CF93DF93611502
:10089000710541F480E0DF91CF911F910F91FF909E
:1008A000EF90089541155105B1F07B01EC010C81E9
:1008B0001D81040F151FB8010E941904882351F3EC
:1008C000288139818C819D81B701820F931F0E94FD
:1008D00067131D830C8381E0DECFCF93DF93EC01A0
:1008E00088819981009711F00E941812198218824C
:1008F0001D821C821B821A82DF91CF910895CF93B3
:10090000DF93EC01FB0101900020E9F73197AF0183
:10091000461B570B0E944104811103C0CE010E9467
:100920006D04CE01DF91CF910895CF93DF93EC0159
:10093000FB0144815581608171810E9441048111D4
:1009400003C0CE010E946D04CE01DF91CF910895C6
:10095000EF92FF920F931F93CF93DF93EC017B01F4
:100960008A01BA010E94190481110BC0CE010E94B4
:100970006D04CE01DF91CF911F910F91FF90EF9009
:1009800008951D830C83B701888199810E946713A4
:10099000F0CFFB0101900020E9F73197AF01461B32
:1009A000570B0C94A804FB01DC0111961C921E92BB
:1009B00013961C921E92129715961C921E921497D3
:1009C0008617970749F0608171816115710521F0E3
:1009D000448155810C94A8040895FC011182108271
:1009E0001382128215821482FB0101900020E9F724
:1009F0003197AF01461B570B0C94A804CF92DF929E
:100A0000EF92FF920F931F93CF93DF936C017B01C3
:100A10008A014617570720F48F2D7A01062F182FC9
:100A200066E371E0C6010E94ED04C0911F04D091FD
:100A30002004EC16FD06F8F40C171D0708F4E80175
:100A4000E0911B04F0911C04EC0FFD1F108110823B
:100A500060911B0470911C046E0D7F1DC601611511
:100A6000710599F00E94C90480911B0490911C04A7
:100A7000C80FD91F1883C601DF91CF911F910F9125
:100A8000FF90EF90DF90CF9008950E946D04ECCF1F
:100A9000FC01808191810C9418120F931F93CF93C6
:100AA000DF9300D000D000D0CDB7DEB78C0188E84E
:100AB00091E00E947F0382EB91E00E947F0380918E
:100AC0007D038A3008F065C08CE891E00E947F03C6
:100AD00060917D0381E0860F80937D0370E090E05C
:100AE00080E04AE00E940C0382EB91E00E947F03C9
:100AF00060E170E083E390E00E94710382EB91E09B
:100B00000E947F0360E170E082E290E00E94710346
:100B100082EB91E00E947F034AE064E070E080E0B5
:100B200090E00E940C0382EB91E00E947F03F801A9
:100B300044815581608171818EE793E00E94C801F4
:100B400082EB91E00E947F03B801CE0101960E94E2
:100B5000D3040D811E810A5E1F4FCE0101960E94B3
:100B600048056AE070E0C8010E94710382EB91E0E1
:100B70000E947F038EE891E00E947F0326960FB6C5
:100B8000F894DEBF0FBECDBFDF91CF911F910F91C3
:100B90000895843608F49CCF10927D0399CFCF92AC
:100BA000DF92EF92FF920F931F93CF93DF93CDB716
:100BB000DEB7E3970FB6F894DEBF0FBECDBF7C0162
:100BC0006B01CA01B9011FA61EA619AA18AA1BAA61
:100BD0001AAA8E010F5F1F4F22E044E00E94750C9D
:100BE000009709F46AC0BC01CE018E960E94C90428
:100BF000B601CE0188960E94D3041BA21AA21DA2A0
:100C00001CA21FA21EA24AE0BE016F5F7F4F81E0BF
:100C100090E00E94BA0CBE016F5F7F4FCE018296BA
:100C20000E94C90462E971E0CE0101960E94ED04C0
:100C3000BE016E5D7F4FCE0101960E9495046FE963
:100C400071E00E947F04BE01685D7F4F0E949504A1
:100C500061EB71E00E947F0464EB71E00E947F040D
:100C6000BE01625D7F4F0E9495046FEB71E00E94B0
:100C70007F04BC01C7010E94D304CE0101960E94EB
:100C80004805CE0182960E944805CE0188960E94B2
:100C90004805CE018E960E944805C701E3960FB61F
:100CA000F894DEBF0FBECDBFDF91CF911F910F91A2
:100CB000FF90EF90DF90CF900895CE018E960E9426
:100CC0006D0496CF1F920F920FB60F9211242F939F
:100CD0003F938F939F93AF93BF93809179039091AC
:100CE0007A03A0917B03B0917C033091740323E0DD
:100CF000230F2D3758F50196A11DB11D20937403C4
:100D00008093790390937A03A0937B03B0937C0341
:100D10008091750390917603A0917703B091780349
:100D20000196A11DB11D8093750390937603A09346
:100D30007703B0937803BF91AF919F918F913F91CB
:100D40002F910F900FBE0F901F90189526E8230F3C
:100D50000296A11DB11DD2CF1F920F920FB60F9216
:100D600011242F933F934F935F936F937F938F93B0
:100D70009F93AF93BF93EF93FF938EE793E00E940F
:100D80007702FF91EF91BF91AF919F918F917F91EA
:100D90006F915F914F913F912F910F900FBE0F90E8
:100DA0001F9018951F920F920FB60F9211242F9338
:100DB0008F939F93EF93FF93E0918E03F0918F03B6
:100DC0008081E0919403F091950382FD1BC0908196
:100DD000809197038F5F8F7320919803821741F062
:100DE000E0919703F0E0E258FC4F958F80939703D2
:100DF000FF91EF919F918F912F910F900FBE0F90C8
:100E00001F9018958081F4CF1F920F920FB60F920A
:100E10001124DF92EF92FF920F931F932F933F9332
:100E20004F935F936F937F938F939F93AF93BF93F2
:100E3000CF93DF93EF93FF931092A4021092A50239
:100E40001092A6021092A7028091A4029091A5028E
:100E5000A091A602B091A7024091D0025091D10278
:100E60006091D2027091D30284179507A607B70745
:100E70000CF07FC0880F991F88559D4FDC01ED91C4
:100E8000FC91828D938D019709F046C0D484E5844E
:100E9000F68407851089D189C289B3892D2D3E2D0D
:100EA0004F2D502F612F7D2F8C2F9B2FA0E00E9464
:100EB0006A1109F00CF444C0AFEF0E945E11248760
:100EC000358746875787608B718B828B938B248500
:100ED0003585468557856089718982899389A0E027
:100EE0000E946A11C9F44081518162817381411568
:100EF000510561057105C1F184819581A681B78194
:100F00000196A11DB11D84179507A607B7070CF51B
:100F100084839583A683B7838091A4029091A502D0
:100F2000A091A602B091A7020196A11DB11D8093C8
:100F3000A4029093A502A093A602B093A70284CF27
:100F40001486158616861786108A118A128A138AC5
:100F5000BECF1482158216821782008CF18DE02D8F
:100F60003097D1F20995D8CF148215821682178254
:100F7000D3CFFF91EF91DF91CF91BF91AF919F912F
:100F80008F917F916F915F914F913F912F911F9121
:100F90000F91FF90EF90DF900F900FBE0F901F907A
:100FA0001895EEE7F3E01382128288EE93E0A0E05A
:100FB000B0E084839583A683B78388E291E0918330
:100FC000808385EC90E09587848784EC90E0978718
:100FD000868780EC90E0918B808B81EC90E0938B06
:100FE000828B82EC90E0958B848B86EC90E0978BE3
:100FF000868B118E128E138E148E66E371E08BE158
:1010000094E00C94ED04CF93DF93CDB7DEB7C854D2
:10101000D1090FB6F894DEBF0FBECDBF789484B56A
:10102000826084BD84B5816084BD85B5826085BDE4
:1010300085B5816085BD80916E00816080936E0072
:101040001092810080918100826080938100809164
:101050008100816080938100809180008160809315
:1010600080008091B10084608093B1008091B000D5
:1010700081608093B00080917A00846080937A00D0
:1010800080917A00826080937A0080917A008160FA
:1010900080937A0080917A00806880937A00109221
:1010A000C100E0918E03F0918F0382E08083E09194
:1010B0008A03F0918B031082E0918C03F0918D03F1
:1010C0008FEC808310929603E0919203F09193034A
:1010D00086E08083E0919003F091910380818061AC
:1010E0008083E0919003F0919103808188608083F8
:1010F000E0919003F0919103808180688083E0917A
:101100009003F091910380818F7D808382E00E9423
:1011100005018CE00E9405018BE00E9405014090D2
:10112000D0025090D1026090D2027090D302E4EDD0
:10113000F2E020E131E046E051E0C12CD12C760113
:10114000C39461E070E014821582168217821086C3
:101150001186128613861486158616861786108ABF
:10116000118A128A138AC48AD58AE68AF78A118E6E
:10117000108E738F628FD9018D909D90AD90BD9030
:101180009D0180829182A282B382DA010D911D912C
:10119000AD01B3E14B165104610471047CF4118F6D
:1011A000008F8201000F111F08551D4FD801ED93CC
:1011B000FC93BFEF4B1A5B0A6B0A7B0A7C9683E0B9
:1011C000E036F80709F0BFCF4092D0025092D1022A
:1011D0006092D2027092D30210928000109281002D
:1011E000809181008860809381008091810082607D
:1011F000809381008FEC97E0909389008093880022
:101200001092850010928400B19A80916F008260E4
:1012100080936F0081EC91E00E94A603C090700360
:10122000D0907103E0907203F0907303A7019601D0
:10123000C701B6010E943711882329F184EC91E09F
:101240000E94FF020E9481038EE793E00E945702F2
:101250000EEF1FEF892B09F412C166E371E0CE0196
:1012600001960E94ED040E94090297FD9EC08F83A3
:10127000188641E050E0BE01695F7F4FCE010196C4
:101280000E944104F0CF46015701E894B7F82FEFD0
:101290003FEF4FE75FE7C501B4010E9437118111AD
:1012A0000DC02FEF3FEF4FE75FE7C501B4010E948C
:1012B0003B0F18161CF488EC91E0C2CF2FEF3FEFE4
:1012C0004FE75FE4C701B6010E94321118161CF403
:1012D0008CEC91E0B5CF2FEF3FEF4FE75FECC7010C
:1012E000B6010E943B0F87FDF3CF20E030E0A9015B
:1012F000C701B6010E943B0F87FF09C06DE28EE770
:1013000093E00E949802F7FAF094F7F8F0942AE03C
:1013100037ED43EA5BE3C701B6010E9497104B012A
:101320005C010E9403116B017C010E94400F9B0134
:10133000AC01C501B4010E9496104B015C014AE06A
:10134000C701B6010E940C036EE28EE793E00E9493
:10135000980220E030E040E251E4C501B4010E946F
:10136000A10F4B015C010E9403116B01F12CE12CD8
:101370004AE0C701B6010E940C03C701B6010E94F2
:10138000400F9B01AC01C501B4010E94961020E002
:1013900030E040E251E40E94A10F0E94031190E06E
:1013A00080E04AE00E940C034DCF80911B04909195
:1013B0001C04009709F4CFC169817A816115710518
:1013C00009F4C7C140911D0450911E042D813E8136
:1013D0004217530708F4BDC10E9467138D819E8197
:1013E0009093200480931F041E821D82CE010196DB
:1013F0000E94480580ED91E00E94A60366EE71E030
:10140000CE0101960E94ED046BE174E0CE010196DD
:101410000E94950466EE71E00E947F040E9493038F
:10142000CE0101960E94480580ED91E00E94A6033E
:1014300068E871E0CE0101960E94ED04CE010196AC
:101440000E94FD038C01CE0101960E9448058BEE9F
:1014500091E00E947F03B80190E080E04AE00E94A2
:101460000C030330110508F48DC10E94810388EF3D
:1014700091E00E94A6030E9481030FEF1FEF80E618
:1014800092E00E94A603C8010E9485030130110565
:1014900009F0FAC0C0906C03D0906D03E0906E0329
:1014A000F0906F0362E772E0CE0107960E94ED04B0
:1014B000A7019601BE01695F7F4FCE0101960E9490
:1014C000CF05C0906803D0906903E0906A03F09064
:1014D0006B0367E772E0CE0143960E94ED04A7011B
:1014E0009601BE016D5E7F4FCE010D960E94CF0525
:1014F000C0906403D0906503E0906603F0906703AA
:101500006BE772E0CE014F960E94ED04A7019601B1
:10151000BE01615E7F4FCE0149960E94CF05C0900B
:101520006003D0906103E0906203F090630361E890
:1015300072E0CE018B960E94ED04A7019601BE01D8
:10154000655D7F4FCE0185960E94CF05C0907003E8
:10155000D0907103E0907203F09073036AE872E038
:10156000CE01C7960E94ED04A7019601BE01695CF9
:101570007F4FCE01C1960E94CF0566E972E0CE0191
:10158000CD960E94ED04BE016F5C7F4FCE01CD96DB
:101590000E94950468E972E00E947F04BE016B5DC1
:1015A0007F4F0E94950468E972E00E947F04BE01AB
:1015B000675E7F4F0E94950468E972E00E947F0495
:1015C000BE01635F7F4F0E94950468E972E00E944C
:1015D0007F04BE016F5F7F4F0E94950468E972E04F
:1015E0000E947F046AE972E00E947F04BC01CE0180
:1015F0008D5B9F4F0E94D304CE01CD960E9448057B
:10160000CE01C1960E944805CE01C7960E944805AA
:10161000CE0185960E944805CE018B960E94480512
:10162000CE0149960E944805CE014F960E9448057A
:10163000CE010D960E944805CE0143960E944805B2
:10164000CE0101960E944805CE0107960E944805EA
:10165000BE016D5B7F4FCE0101960E94D304CE0187
:1016600001960E944D05CE0101960E944805CE01CB
:101670008D5B9F4F0E94480581E00E9424010E94DB
:10168000910180E00E94240188E891E00E947F039C
:1016900082EB91E00E947F0380917D038A3008F005
:1016A0001AC18CE891E00E947F0360917D0381E084
:1016B000860F80937D0370E090E080E04AE00E9416
:1016C0000C0382EB91E00E947F0360E170E083E312
:1016D00090E00E94710382EB91E00E947F0360E141
:1016E00070E082E290E00E94710382EB91E00E9440
:1016F0007F034AE062E070E080E090E00E940C032B
:1017000082EB91E00E947F038CE992E00E947F03CC
:1017100082EB91E00E947F036AE070E08CE190E050
:101720000E94710382EB91E00E947F038EE891E0BA
:101730000E947F030E94910180E090E0892B09F4D0
:1017400069CD0E946302882309F464CD0E940000E1
:1017500061CD0E94181289819A8190931C04809314
:101760001B048B819C8190931E0480931D048D81AA
:101770009E819093200480931F041A8219821C82F8
:101780001B8232CE0E9481036EE871E0CE01019689
:101790000E94ED04CE0101960E94FD038C01CE0152
:1017A00001960E94480581E192E00E947F03B80102
:1017B00090E080E04AE00E940C030E9481037801DF
:1017C000A3E0EA0EF11C8EE192E00E947F03C701C4
:1017D0000E948503B6E0EB16F1042CF480E392E05E
:1017E0000E94A6034ACEA80141505109B801635096
:1017F0007109CE010D960E94FE0481E492E00E94E0
:101800007F03CE010D960E9493038D859E850097E0
:10181000A1F00E94930C8B01CB010E948503E0167E
:10182000F10679F080E392E00E94A6030FEF1FEF2C
:10183000CE010D960E94480522CE60E070E0CB01FB
:10184000EACF46E050E064E070E0CE0107960E94E7
:10185000FE048AE492E00E947F03CE0107960E9474
:1018600093038F819885009759F10E94930C97FFFD
:101870002AC00E9450030E9481034FE050E06DE0B7
:1018800070E0CE0101960E94FE048AE592E00E947B
:101890007F03CE0101960E94930389819A8100976C
:1018A000B1F00E94930C8B01CB010E948503CE0105
:1018B00001960E944805CE0107960E944805B8CFC0
:1018C00060E070E0CB014AE00E940C03D4CF60E0FE
:1018D00070E0CB01E8CF843608F4E7CE10927D03A8
:1018E000E4CE8BE194E00C944805EF920F931F93A4
:1018F000CF93DF93E80134E047FD34E1042E000C80
:10190000550B57FF03C0519541955109E32E022F06
:10191000242FAE010E94F40CCE01DF91CF911F91D4
:101920000F91EF9008951F93FC0199278827BC0120
:10193000E89411911032E9F3193010F01E30C8F319
:101940001B3251F01D3249F4689406C00E94C50C48
:10195000610F711D811D911D119110531A30B0F34B
:101960003EF490958095709561957F4F8F4F9F4F76
:101970001F910895BB274A3031F4992322F4BDE228
:10198000909581959F4F0C94DB0C592F482F372F42
:10199000262F660F771F881F991F660F771F881FD6
:1019A000991F620F731F841F951F660F771F881F73
:1019B000991F0895BB27FB015527AA27880F991F58
:1019C000AA1FA41710F0A41B83955051B9F7A05D6E
:1019D000AA3308F0A95DA193009779F7B111B193EB
:1019E0001192CB010C942B0FA9E0B0E0EAEFFCE0E0
:1019F0000C9465106A01F22EB02E102FFBE3AF2E6F
:101A0000A01608F41BE31F5F012F27E0AE014F5F14
:101A10005F4F0E94530EBC018981982F99709130BD
:101A200009F43FC09BE2E1FC04C09E2D9170E0FCF4
:101A30003AC05E2D5071E82FE87083FF46C084E005
:101A4000911101C083E0EF2DE81B8F1508F0E0E055
:101A5000D6018E2F20E2552351F1992329F0D6018A
:101A60009C93C60101966C0196012D5F3F4FE2FEEB
:101A700024C08EE4D6018C9391E411969C93119727
:101A800012968C93D9018E2F90E281111BC0E20F28
:101A9000F32FF11D10828EEF9FEF2996ECE00C944E
:101AA00081109DE2C6CF90E2C4CF2D938150811169
:101AB000FCCFCE0ED11CE0E0D0CF8EE6D6018C93C9
:101AC00091E6DBCF9D938150E0CF482F447082FF99
:101AD0003DC084E0911101C083E08F1510F4EF2D1B
:101AE000E81BD6018E2F20E2552309F1992329F016
:101AF000D6019C93C60101966C0196012D5F3F4F64
:101B0000E2FE1BC089E4D6018C938EE411968C937F
:101B1000119786E412968C93D9018E2F90E2882338
:101B200009F4B5CF9D938150FACF2D938150811147
:101B3000FCCFCE0ED11CE0E0D9CF89E6D6018C9344
:101B40008EE611968C93119786E6E4CF9B0177FF82
:101B500002C030E020E0A1E0B0E0911102C0B0E0AE
:101B6000A0E0F9013196AE0FBF1F8B2C912CBB204A
:101B700009F461C05401EFEFAE1ABE0AAA0DBB1DF5
:101B8000FA161B0619F014F04F2D4A1B511188C08C
:101B9000E3FC59C07601A42FB0E2A1114FC0C40EDE
:101BA000D11C992309F45BC040E0D6011196F601DF
:101BB00090836D01552309F448C0012F060F9A81C7
:101BC000582F507184FF03C0913309F4015010164F
:101BD0000CF047C0093008F008E0EEE2FE2E5B0191
:101BE000A01AB10885019194819491082F3F320782
:101BF00029F4D601FC92F60131966F016217730742
:101C000094F1021713077CF5DB01A21BB30BAA2486
:101C1000A394B12CAC0EBD1EAA0DBB1D11968C91C8
:101C200021503109D601119628153905F4F0F60135
:101C300080836D01DBCFB12CA12CA0CFF701B19334
:101C40007F01A150AACF9111B0CFD601942F50E3BC
:101C500002C05D9391509111FCCFC40ED11C40E0A5
:101C6000ACCF01E0BACF80E3DBCF6217730731F46A
:101C7000963388F4953311F4552369F0F601808387
:101C8000FD01842F90E2811108C0A40FB11D1C92A8
:101C900090E080E002CF81E3F1CF91938150F3CFC8
:101CA000911183CF8ACF283008F027E03327DA015B
:101CB000990F311D87FD916000966105710539F41A
:101CC00032602E5F3D9330E32A95E1F708959F3F00
:101CD00030F080387105610509F03C5F3C5F3D9351
:101CE000913008F08068911DDF93CF931F930F937D
:101CF000FF92EF92192F987F9695E92F96959695DA
:101D0000E90FFF27EE53FF4F99273327EE24FF24D7
:101D1000A701E70105900894079428F4360FE71E01
:101D2000F81E491F511D660F771F881F991F0694C3
:101D3000A1F70590079428F4E70EF81E491F561FD7
:101D4000C11D770F881F991F661F0694A1F7059084
:101D5000079428F4F80E491F561FC71FD11D880F7E
:101D6000991F661F771F0694A1F70590079420F42A
:101D7000490F561FC71FD81F990F661F771F881F4F
:101D80000694A9F784911095177041F0D695C795E0
:101D900057954795F794E7941A95C1F7E8E6F0E070
:101DA00068941590159135916591959105907FE214
:101DB0007395E118F10A430B560BC90BD009C0F714
:101DC000E10CF11E431F561FC91FD01D7EF4703356
:101DD00011F48A95E6CFE894015030F0080F0AF428
:101DE0000027021708F4202F2395022F7A3328F0BA
:101DF00079E37D932A95E9F710C07D932A9589F6BA
:101E0000069497956795379517951794E118F10AF9
:101E1000430B560BC90BD00998F023957E9173950F
:101E20007A3308F070E37C932013B8F77E917061E9
:101E30007D9330F0839571E37D9370E32A95E1F70C
:101E40001124EF90FF900F911F91CF91DF9199276F
:101E500087FD90950895DC01FC01672F7191772330
:101E6000E1F7329704C07C916D9370836291AE1755
:101E7000BF07C8F308950E947D0F08F481E008951C
:101E8000E89409C097FB3EF4909580957095619514
:101E90007F4F8F4F9F4F9923A9F0F92F96E9BB27CA
:101EA0009395F695879577956795B795F111F8CF46
:101EB000FAF4BB0F11F460FF1BC06F5F7F4F8F4FB1
:101EC0009F4F16C0882311F096E911C0772321F0A7
:101ED0009EE8872F762F05C0662371F096E8862F3F
:101EE00070E060E02AF09A95660F771F881FDAF796
:101EF000880F9695879597F90895990F0008550FC3
:101F0000AA0BE0E8FEEF16161706E807F907C0F07F
:101F100012161306E407F50798F0621B730B840B87
:101F2000950B39F40A2661F0232B242B252B21F461
:101F300008950A2609F4A140A6958FEF811D811D01
:101F400008950E94B40F0C9425100E94171038F0C9
:101F50000E941E1020F0952311F00C940E100C948A
:101F6000141011240C9459100E94361070F3959F90
:101F7000C1F3950F50E0551F629FF001729FBB2780
:101F8000F00DB11D639FAA27F00DB11DAA1F649F1C
:101F90006627B00DA11D661F829F2227B00DA11DCF
:101FA000621F739FB00DA11D621F839FA00D611D55
:101FB000221F749F3327A00D611D231F849F600D76
:101FC000211D822F762F6A2F11249F5750409AF09F
:101FD000F1F088234AF0EE0FFF1FBB1F661F771F2B
:101FE000881F91505040A9F79E3F510580F00C94F6
:101FF0000E100C9459105F3FE4F3983ED4F386958D
:1020000077956795B795F795E7959F5FC1F7FE2B95
:10201000880F911D9695879597F9089597F99F6771
:1020200080E870E060E008959FEF80EC0895002460
:102030000A941616170618060906089500240A942D
:1020400012161306140605060895092E0394000CB3
:1020500011F4882352F0BB0F40F4BF2B11F460FF42
:1020600004C06F5F7F4F8F4F9F4F089557FD90586B
:10207000440F551F59F05F3F71F04795880F97FB4C
:10208000991F61F09F3F79F0879508951216130606
:102090001406551FF2CF4695F1DF08C01616170635
:1020A0001806991FF1CF869571056105089408956A
:1020B000E894BB2766277727CB0197F908952F92DD
:1020C0003F924F925F926F927F928F929F92AF92C8
:1020D000BF92CF92DF92EF92FF920F931F93CF9315
:1020E000DF93CDB7DEB7CA1BDB0B0FB6F894DEBFAC
:1020F0000FBECDBF09942A88398848885F846E84D2
:102100007D848C849B84AA84B984C884DF80EE801B
:10211000FD800C811B81AA81B981CE0FD11D0FB624
:10212000F894DEBF0FBECDBFED0108955058BB2718
:10213000AA270E94AE100C9425100E94171038F0A8
:102140000E941E1020F039F49F3F19F426F40C94DD
:1021500014100EF4E095E7FB0C940E10E92F0E948A
:10216000361058F3BA17620773078407950720F0F3
:1021700079F4A6F50C9458100EF4E0950B2EBA2FB6
:10218000A02D0B01B90190010C01CA01A00111247D
:10219000FF27591B99F0593F50F4503E68F11A1629
:1021A000F040A22F232F342F4427585FF3CF4695BA
:1021B00037952795A795F0405395C9F77EF41F16DC
:1021C000BA0B620B730B840BBAF09150A1F0FF0FA6
:1021D000BB1F661F771F881FC2F70EC0BA0F621F92
:1021E000731F841F48F4879577956795B795F79582
:1021F0009E3F08F0B0CF9395880F08F09927EE0F17
:102200009795879508950E943E1088F09F5798F003
:10221000B92F9927B751B0F0E1F0660F771F881FEB
:10222000991F1AF0BA95C9F714C0B13091F00E9405
:102230005810B1E008950C945810672F782F882714
:10224000B85F39F0B93FCCF3869577956795B3952C
:10225000D9F73EF490958095709561957F4F8F4F9B
:102260009F4F08950E947D0F08F48FEF08950E94FC
:102270007D0F880B990B0895A1E21A2EAA1BBB1B98
:10228000FD010DC0AA1FBB1FEE1FFF1FA217B30742
:10229000E407F50720F0A21BB30BE40BF50B661F58
:1022A000771F881F991F1A9469F76095709580951C
:1022B00090959B01AC01BD01CF0108950024A7FDBD
:1022C00000942A0F301D401D501D601D701D801D83
:1022D000901D08950024A7FD00942A17300540059D
:1022E000500560057005800590050895EE0FFF1FED
:1022F0000590F491E02D09940F931F93CF93DF93F2
:102300008230910510F482E090E0E0912304F09196
:10231000240430E020E0B0E0A0E0309799F42115EB
:10232000310509F44AC0281B390B24303105D8F592
:102330008A819B816115710589F1FB0193838283F9
:10234000FE0111C040815181028113814817590754
:10235000E0F04817590799F4109761F012960C9322
:10236000129713961C933296CF01DF91CF911F9154
:102370000F9108950093230410932404F4CF2115A2
:10238000310551F04217530738F0A901DB019A01DA
:10239000BD01DF01F801C1CFEF01F9CF9093240413
:1023A00080932304CDCFFE01E20FF31F819391931D
:1023B0002250310939832883D7CF209121043091CD
:1023C0002204232B41F42091020130910301309328
:1023D0002204209321042091000130910101211554
:1023E000310541F42DB73EB74091040150910501EC
:1023F000241B350BE0912104F0912204E217F3072E
:10240000A0F42E1B3F0B2817390778F0AC014E5F64
:102410005F4F2417350748F04E0F5F1F509322047B
:1024200040932104819391939FCFF0E0E0E09CCF13
:10243000CF93DF930097E9F0FC0132971382128269
:10244000A0912304B0912404ED0130E020E0109726
:10245000A1F420813181820F931F209121043091BA
:1024600022042817390709F061C0F0932204E09391
:102470002104DF91CF910895EA01CE17DF07E8F537
:102480004A815B819E0141155105B1F7E901FB834A
:10249000EA8349915991C40FD51FEC17FD0761F4E8
:1024A000808191810296840F951FE9019983888329
:1024B000828193819B838A83F0E0E0E012968D9184
:1024C0009C9113970097B9F52D913C911197CD01EF
:1024D0000296820F931F2091210430912204281725
:1024E000390739F6309751F51092240410922304DD
:1024F000B0932204A0932104BCCFD383C283408134
:102500005181840F951FC817D90761F44E5F5F4F43
:1025100088819981480F591F518340838A819B810B
:10252000938382832115310509F0B0CFF093240401
:10253000E09323049ECFFD01DC01C0CF1382128201
:10254000D7CFB0E0A0E0E7EAF2E10C9461108C0193
:10255000009751F4CB010E947C118C01C801CDB7CA
:10256000DEB7E0E10C947D10FC01E60FF71F9C0143
:1025700022503109E217F30708F49DC0D901CD912B
:10258000DC911197C617D70798F0C530D10530F305
:10259000CE0104978617970708F3C61BD70B22971F
:1025A000C193D1936D937C93CF010E941812D6CF23
:1025B0005B01AC1ABD0A4C018C0E9D1EA091230438
:1025C000B0912404512C412CF12CE12C109731F5C1
:1025D00080912104909122048815990509F05CC02E
:1025E0004616570608F058C08091000190910101ED
:1025F000009741F48DB79EB74091040150910501B9
:10260000841B950BE817F90708F055C0F0932204D6
:10261000E0932104F90171836083A0CF8D919C9197
:10262000119712966C90129713967C901397A81599
:10263000B90559F56C0142E0C40ED11CCA14DB0483
:1026400020F1AC014A195B09DA011296159780F066
:102650006282738251834083D9016D937C93E1142C
:10266000F10471F0D7011396FC93EE93129776CF95
:1026700022968C0F9D1FF90191838083F301EFCF88
:10268000F0932404E093230469CF4816590608F414
:102690002C017D01D3019ACFCB010E947C117C01DA
:1026A000009749F0AE01B8010E945E13C8010E9474
:1026B0001812870153CF10E000E050CFFB01DC017E
:1026C00002C001900D9241505040D8F70895FB018F
:1026D000DC0101900D920020E1F70895FB0151917A
:1026E0005523A9F0BF01DC014D9145174111E1F7D8
:1026F00059F4CD010190002049F04D914015411150
:10270000C9F3FB014111EFCF81E090E001970895FB
:1027100010E0CAEDD0E004C0FE010E9476112196BF
:0A272000CB3DD107C9F7F894FFCFB5
:10272A00000025048000EE03DF03D003C103B203D7
:10273A00E8030000F2030000FC03000006040000A6
:10274A0010040000000000009802C8015702F501B9
:10275A004902DF020D0A004765742067617320543D
:10276A004F444F00476574206C6967687420544F62
:10277A00444F00476574206475737420544F444F66
:10278A00004765742068756D696469747920544FCF
:10279A00444F004765742074656D70657261747585
:1027AA00726520544F444F0053545800300045542A
:1027BA005800207B2022626F784944223A20002C5C
:1027CA00202273656E736F7254797065223A2022E3
:1027DA00002220002C2276616C7565223A20007D49
:1027EA00003A29006E616E00696E66006F766600B7
:1027FA002D2D2D2D2D2D2D2D2D2D2D2D2D2D2D2DFF
:10280A002D2D2D2D2D2D2D2D2D2D00535458206677
:10281A006F756E6420617400212121205041434B61
:10282A004554204E4F542056414C494420212121E1
:10283A000045545820666F756E64206174002D2D12
:10284A004D657373616765206C656E6774683A00DD
:10285A005041434B4554204E4F542056414C494415
:10286A0000436865636B756D3A005061636B61671D
:10287A006520636F756E74657200547970653A00ED
:10288A00526563656976656420636F6D6D616E6418
:10289A003A006475737400676173006C69676874E1
:1028AA000068756D69646974790074656D70657224
:1028BA006174757265005B002C005D0048656C6C84
:0428CA006F2100007A
:00000001FF
