:100000000C94DB000C9403010C9403010C94030189
:100010000C9403010C9403010C9403010C94030150
:100020000C9403010C9403010C9403010C94CE0670
:100030000C9403010C9403010C9403010C94030130
:100040000C942C060C9403010C949C060C947606DC
:100050000C9403010C9403010C9403010C94030110
:100060000C9403010C94030100407A10F35A00A091
:10007000724E18090010A5D4E80000E87648170071
:1000800000E40B54020000CA9A3B000000E1F505B1
:10009000000080969800000040420F000000A086FB
:1000A00001000000102700000000E803000000002D
:1000B0006400000000000A000000000001000000D1
:1000C00000002C76D888DC674F0823DFC1DFAE59EB
:1000D000E1B1B796E5E3E453C63AE651997696E87E
:1000E000E6C28426EB898C9B62ED407C6FFCEFBC02
:1000F0009C9F40F2BAA56FA5F490055A2AF75C932D
:100100006B6CF9676DC11BFCE0E40D47FEF520E662
:10011000B500D0ED902E0300943577050080841E45
:10012000080000204E0A000000C80C333333330FA0
:10013000986E12831141EF8D2114893BE65516CF3D
:10014000FEE6DB18D1844B381BF77C1D901DA4BB49
:10015000E424203284725E228100C9F124ECA1E5FE
:100160003D27000000080002010000030407000012
:1001700000000000000000000000250028002B0007
:1001800000000000240027002A00040404040404E2
:100190000404020202020202030303030303010236
:1001A0000408102040800102040810200102040805
:1001B00010209B07C60B11241FBECFEFD8E0DEBF77
:1001C000CDBF24E0A0EBB2E001C01D92A333B20783
:1001D000E1F712E0A0E0B1E0E0E4F2E202C0059055
:1001E0000D92A03BB107D9F710E0CAEDD0E004C0F2
:1001F0002197FE010E94010FC93DD107C9F70E9456
:10020000CD070C9413110C94000090E0FC01E25611
:10021000FE4F249186579E4FFC018491882399F0CC
:1002200090E0880F991FFC01E058FE4FA591B49112
:10023000FC01EA58FE4F859194918FB7F894EC91A8
:10024000E22BEC938FBF0895E4E6F1E02491E0EA1D
:10025000F1E09491ECE8F1E0E491EE23C9F022237F
:1002600039F0233001F1A8F4213019F1223029F1BD
:10027000F0E0EE0FFF1FEA58FE4FA591B4912FB7A3
:10028000F894EC91811126C090959E239C932FBFEA
:1002900008952730A9F02830C9F0243049F720917B
:1002A00080002F7D03C0209180002F772093800055
:1002B000DFCF24B52F7724BDDBCF24B52F7DFBCF37
:1002C0002091B0002F772093B000D2CF2091B000C2
:1002D0002F7DF9CF9E2BDACF3FB7F894809183031F
:1002E00090918403A0918503B091860326B5A89BC5
:1002F00005C02F3F19F00196A11DB11D3FBFBA2FB8
:10030000A92F982F8827BC01CD01620F711D811D77
:10031000911D42E0660F771F881F991F4A95D1F7FC
:1003200008950895AF92BF92CF92DF92EF92FF921D
:100330000F931F93CF93DF936C017B018B01040F0D
:10034000151FEB015E01AE18BF08C017D10759F0A9
:100350006991D601ED91FC910190F081E02DC601EB
:100360000995892B79F7C501DF91CF911F910F91E5
:10037000FF90EF90DF90CF90BF90AF900895FC0179
:10038000918D828D981761F0A28DAE0FBF2FB11D98
:100390005D968C91928D9F5F9F73928F90E00895F0
:1003A0008FEF9FEF08952FB7F89480918703909176
:1003B0008803A0918903B0918A032FBF809394038F
:1003C00090939503A0939603B09397038CE893E0E2
:1003D0000E94BF0197FF26C02FB7F8948091870332
:1003E00090918803A0918903B0918A032FBF409117
:1003F0009403509195036091960370919703841B29
:10040000950BA60BB70B409190035091910360910F
:1004100092037091930384179507A607B707B0F26C
:100420008FEF9FEF0895FC01918D828D981731F029
:10043000828DE80FF11D858D90E008958FEF9FEF7D
:100440000895FC01918D228D892F90E0805C9F4F53
:10045000821B91098F73992708958CE893E00E947D
:10046000210221E0892B09F420E0822F089580E009
:1004700090E0892B29F00E942D0281110C9400003C
:100480000895FC01A48DA80FB92FB11DA35ABF4F29
:100490002C91848D90E001968F739927848FA68983
:1004A000B7892C93A089B1898C9180648C93938DAA
:1004B000848D981306C00288F389E02D80818F7D9A
:1004C00080830895EF92FF920F931F93CF93DF9352
:1004D000EC0181E0888F9B8D8C8D981316C0E88984
:1004E000F989808185FF11C0EE89FF896083E889E1
:1004F000F98980818064808381E090E0DF91CF91F1
:100500001F910F91FF90EF900895F62E0B8D10E044
:100510000F5F1F4F0F731127E02E8C8D8E110CC0B3
:100520000FB607FCFACFE889F989808185FFF5CFFE
:10053000CE010E944102F1CFEB8DEC0FFD2FF11D9A
:10054000E35AFF4FF0820B8FEA89FB89808180623A
:10055000D2CFCF93DF93EC01888D8823B9F0AA899D
:10056000BB89E889F9898C9185FD03C0808186FD6E
:100570000DC00FB607FCF7CF8C9185FFF2CF8081BD
:1005800085FFEDCFCE010E944102E9CFDF91CF91EF
:100590000895FC0101900020E9F73197AF01481B55
:1005A000590BBC018CE893E00C9492018F929F92BE
:1005B000AF92BF920F931F93CF93DF93CDB7DEB768
:1005C000A1970FB6F894DEBF0FBECDBF19A242307F
:1005D00008F44AE08E010F5D1F4F842E912CB12C40
:1005E000A12CA50194010E94C70EE62FB901CA01F2
:1005F000EA30F4F4E05DD801EE938D01232B242B37
:10060000252B79F790E080E0109719F0CD010E943A
:10061000C902A1960FB6F894DEBF0FBECDBFDF9121
:10062000CF911F910F91BF90AF909F908F900895A1
:10063000E95CE1CFCF92DF92EF92FF92CF93DF930D
:100640006B017C016DE28CE893E00E946202EC0198
:1006500066277727CB016C197D098E099F094AE02F
:100660000E94D6028C0F9D1FDF91CF91FF90EF90DB
:10067000DF90CF900895AB01BC01990F880B990BC7
:100680004A30510521F44AE097FD0C941A030C946A
:10069000D6020C94C90284E391E00C94C902CF9372
:1006A000DF936AE070E00E943B03EC010E944B0381
:1006B0008C0F9D1FDF91CF910895CF93DF93FC01A5
:1006C00044815581608171818CE893E00E949201A0
:1006D000EC010E944B038C0F9D1FDF91CF91089579
:1006E000CF93DF930E94C902EC010E944B038C0F51
:1006F0009D1FDF91CF910895109278031092790396
:1007000010927A0310927B0387E391E00E947003BA
:1007100090E080E008951092740310927503109297
:1007200076031092770384E491E00E94700390E0D6
:1007300080E0089510927C0310927D0310927E0356
:1007400010927F0383E591E00E94700390E080E0C7
:100750000895109270031092710310927203109218
:10076000730381E691E00E94700390E080E00895B9
:1007700010926C0310926D0310926E0310926F032F
:1007800083E791E00E94700390E080E00895CF93AA
:10079000DF9320912D0430912E04232B89F0FC014E
:1007A000C0912904D0912A0460817181CE010E94F8
:1007B000F910009729F08C1B9D0BDF91CF910895C4
:1007C0008FEF9FEFFACF0F931F93CF93DF93EC013F
:1007D00088819981009759F02A813B812617370734
:1007E00030F081E0DF91CF911F910F9108958B013F
:1007F0006F5F7F4F0E942C10009759F09983888378
:100800001B830A832C813D81232B59F7FC01108225
:10081000E8CF80E0E7CFEF92FF920F931F93CF9343
:10082000DF936115710541F480E0DF91CF911F9155
:100830000F91FF90EF90089541155105B1F07B01A4
:10084000EC010C811D81040F151FB8010E94E30308
:10085000882351F3288139818C819D81B701820FD2
:10086000931F0E94F2101D830C8381E0DECFCF9393
:10087000DF93EC0188819981009711F00E94A30F0A
:10088000198218821D821C821B821A82DF91CF91ED
:100890000895CF93DF93EC01FB0101900020E9F76D
:1008A0003197AF01461B570B0E940B04811103C007
:1008B000CE010E943704CE01DF91CF910895CF93EE
:1008C000DF93EC01FB0144815581608171810E94BD
:1008D0000B04811103C0CE010E943704CE01DF91C9
:1008E000CF910895EF92FF920F931F93CF93DF93D1
:1008F000EC017B018A01BA010E94E30381110BC064
:10090000CE010E943704CE01DF91CF911F910F914C
:10091000FF90EF9008951D830C83B7018881998122
:100920000E94F210F0CFFB0101900020E9F731970F
:10093000AF01461B570B0C947204FB01DC011196AE
:100940001C921E9213961C921E92129715961C9240
:100950001E9214978617970749F06081718161157F
:10096000710521F0448155810C9472040895FC01B5
:10097000118210821382128215821482FB0101906F
:100980000020E9F73197AF01461B570B0C94720416
:10099000CF92DF92EF92FF920F931F93CF93DF934B
:1009A0006C017B018A014617570720F48F2D7A01CD
:1009B000062F182F66E371E0C6010E94B704C091AC
:1009C0002D04D0912E04EC16FD06F8F40C171D072B
:1009D00008F4E801E0912904F0912A04EC0FFD1FCE
:1009E000108110826091290470912A046E0D7F1D80
:1009F000C6016115710599F00E9493048091290444
:100A000090912A04C80FD91F1883C601DF91CF9196
:100A10001F910F91FF90EF90DF90CF9008950E946B
:100A20003704ECCFFC01808191810C94A30F0F93CC
:100A30001F93CF93DF9300D000D000D0CDB7DEB7A7
:100A40008C0188E891E00E94490382EB91E00E94CA
:100A5000490380918B038A3008F065C08CE891E0EF
:100A60000E94490360918B0381E0860F80938B0382
:100A700070E090E080E04AE00E94D60282EB91E0D4
:100A80000E94490360E170E083E390E00E943B0331
:100A900082EB91E00E94490360E170E082E290E025
:100AA0000E943B0382EB91E00E9449034AE063E02D
:100AB00070E080E090E00E94D60282EB91E00E941C
:100AC0004903F80144815581608171818CE893E08C
:100AD0000E94920182EB91E00E944903B801CE018D
:100AE00001960E949D040D811E810A5E1F4FCE015A
:100AF00001960E9412056AE070E0C8010E943B0363
:100B000082EB91E00E9449038EE891E00E94490344
:100B100026960FB6F894DEBF0FBECDBFDF91CF9102
:100B20001F910F910895843608F49CCF10928B0387
:100B300099CFCF92DF92EF92FF920F931F93CF93B3
:100B4000DF93CDB7DEB7E3970FB6F894DEBF0FBEE5
:100B5000CDBF7C016B01CA01B9011FA61EA619AA4F
:100B600018AA1BAA1AAA8E010F5F1F4F22E044E0A9
:100B70000E94CA0B009709F46AC0BC01CE018E9690
:100B80000E949304B601CE0188960E949D041BA288
:100B90001AA21DA21CA21FA21EA24AE0BE016F5FE4
:100BA0007F4F81E090E00E940F0CBE016F5F7F4F8E
:100BB000CE0182960E94930462E971E0CE01019613
:100BC0000E94B704BE016E5D7F4FCE0101960E9468
:100BD0005F046FE971E00E944904BE01685D7F4FC8
:100BE0000E945F0461EB71E00E94490464EB71E0D4
:100BF0000E944904BE01625D7F4F0E945F046FEB5B
:100C000071E00E944904BC01C7010E949D04CE010D
:100C100001960E941205CE0182960E941205CE0115
:100C200088960E941205CE018E960E941205C70179
:100C3000E3960FB6F894DEBF0FBECDBFDF91CF9124
:100C40001F910F91FF90EF90DF90CF900895CE010C
:100C50008E960E94370496CF1F920F920FB60F9276
:100C600011242F933F938F939F93AF93BF938091C2
:100C7000870390918803A0918903B0918A033091F2
:100C8000820323E0230F2D3758F50196A11DB11DD6
:100C9000209382038093870390938803A093890312
:100CA000B0938A038091830390918403A09185037C
:100CB000B09186030196A11DB11D8093830390938B
:100CC0008403A0938503B0938603BF91AF919F9156
:100CD0008F913F912F910F900FBE0F901F901895FD
:100CE00026E8230F0296A11DB11DD2CF1F920F92AD
:100CF0000FB60F9211242F933F934F935F936F93EF
:100D00007F938F939F93AF93BF93EF93FF938CE861
:100D100093E00E944102FF91EF91BF91AF919F91AB
:100D20008F917F916F915F914F913F912F910F9094
:100D30000FBE0F901F9018951F920F920FB60F9233
:100D400011242F938F939F93EF93FF93E0919C0334
:100D5000F0919D038081E091A203F091A30382FDB5
:100D60001BC090818091A5038F5F8F732091A60394
:100D7000821741F0E091A503F0E0E457FC4F958F16
:100D80008093A503FF91EF919F918F912F910F90E9
:100D90000FBE0F901F9018958081F4CF1F920F9275
:100DA0000FB60F921124DF92EF92FF920F931F93D1
:100DB0002F933F934F935F936F937F938F939F9363
:100DC000AF93BF93CF93DF93EF93FF931092B00253
:100DD0001092B1021092B2021092B3028091B0024E
:100DE0009091B102A091B202B091B3024091DC02A5
:100DF0005091DD026091DE027091DF028417950749
:100E0000A607B7070CF07FC0880F991F8C549D4F21
:100E1000DC01ED91FC91828D938D019709F046C024
:100E2000D484E584F68407851089D189C289B38981
:100E30002D2D3E2D4F2D502F612F7D2F8C2F9B2F31
:100E4000A0E00E94F50E09F00CF444C0AFEF0E9440
:100E5000E90E2487358746875787608B718B828B95
:100E6000938B24853585468557856089718982896C
:100E70009389A0E00E94F50EC9F4408151816281FE
:100E800073814115510561057105C1F18481958119
:100E9000A681B7810196A11DB11D84179507A607EC
:100EA000B7070CF584839583A683B7838091B0023E
:100EB0009091B102A091B202B091B3020196A11D2E
:100EC000B11D8093B0029093B102A093B202B0938F
:100ED000B30284CF1486158616861786108A118A67
:100EE000128A138ABECF1482158216821782008C52
:100EF000F18DE02D3097D1F20995D8CF148215826B
:100F000016821782D3CFFF91EF91DF91CF91BF91DE
:100F1000AF919F918F917F916F915F914F913F9191
:100F20002F911F910F91FF90EF90DF900F900FBEC8
:100F30000F901F901895ECE8F3E01382128288EE70
:100F400093E0A0E0B0E084839583A683B78388E232
:100F500091E09183808385EC90E09587848784EC91
:100F600090E09787868780EC90E0918B808B81EC76
:100F700090E0938B828B82EC90E0958B848B86EC57
:100F800090E0978B868B118E128E138E148E66E3F3
:100F900071E089E294E00C94B704CF93DF93CDB76E
:100FA000DEB7C854D1090FB6F894DEBF0FBECDBF6F
:100FB000789484B5826084BD84B5816084BD85B534
:100FC000826085BD85B5816085BD80916E00816040
:100FD00080936E00109281008091810082608093E6
:100FE00081008091810081608093810080918000E8
:100FF0008160809380008091B10084608093B10013
:101000008091B00081608093B00080917A0084600C
:1010100080937A0080917A00826080937A00809138
:101020007A00816080937A0080917A008068809352
:101030007A001092C100E0919C03F0919D0382E040
:101040008083E0919803F09199031082E0919A03D4
:10105000F0919B038FEC80831092A403E091A00396
:10106000F091A10386E08083E0919E03F0919F03BD
:10107000808180618083E0919E03F0919F03808155
:1010800088608083E0919E03F0919F038081806857
:101090008083E0919E03F0919F0380818F7D808308
:1010A00082E00E9405018CE00E9405018BE00E9415
:1010B00005014090DC025090DD026090DE027090ED
:1010C000DF02E0EEF2E040E151E026E031E0C12C49
:1010D000D12C7601C39461E070E0148215821682EF
:1010E0001782108611861286138614861586168638
:1010F0001786108A118A128A138AC48AD58AE68AC8
:10110000F78A118E108E738F628FDA018D909D9009
:10111000AD90BD90AD0180829182A282B382D9014F
:101120000D911D919D01B3E14B16510461047104B1
:101130007CF4118F008F8201000F111F0C541D4F82
:10114000D801ED93FC93BFEF4B1A5B0A6B0A7B0A45
:101150007C9683E0EC36F80709F0BFCF4092DC02C2
:101160005092DD026092DE027092DF0210928000E7
:10117000109281008091810088608093810080912D
:1011800081008260809381008FEC97E090938900CA
:10119000809388001092850010928400B19A80910B
:1011A0006F00826080936F0080E00E9424018CE8D1
:1011B00093E00E9421020EEF1FEF892B09F480C0FB
:1011C00066E371E0CE0101960E94B7040E94D3014C
:1011D00097FD0CC08F83188641E050E0BE01695F27
:1011E0007F4FCE0101960E940B04F0CF809129041D
:1011F00090912A04009709F405C169817A816115EB
:10120000710509F4FDC040912B0450912C042D81EF
:101210003E814217530708F4F3C00E94F2108D81FB
:101220009E8190932E0480932D041E821D82CE01F8
:1012300001960E94120581EC91E00E94700367ED17
:1012400071E0CE0101960E94B70469E274E0CE011C
:1012500001960E945F0467ED71E00E9449040E94BC
:101260005D03CE0101960E94120581EC91E00E947F
:10127000700368E871E0CE0101960E94B704CE01C8
:1012800001960E94C7038C01CE0101960E941205AF
:101290008CED91E00E944903B80190E080E04AE0C3
:1012A0000E94D6020330110508F4C3C00E944B030C
:1012B00089EE91E00E9470030E944B030FEF1FEF35
:1012C00081E592E00E947003C8010E944F03809163
:1012D000800390918103019709F45AC101301105EF
:1012E00009F05CC088E891E00E94490382EB91E03C
:1012F0000E94490380918B038A3008F043C18CE837
:1013000091E00E94490360918B0381E0860F8093F6
:101310008B0370E090E080E04AE00E94D60282EB0E
:1013200091E00E94490360E170E083E390E00E9455
:101330003B0382EB91E00E94490360E170E082E2AE
:1013400090E00E943B0382EB91E00E9449034AE057
:1013500062E070E080E090E00E94D60282EB91E0D3
:101360000E94490388E692E00E94490382EB91E0E3
:101370000E9449036AE070E08CE190E00E943B0328
:1013800082EB91E00E9449038EE891E00E944903BC
:1013900081E090E090938103809380030E946C0130
:1013A0004B015C0188EEC82E83E0D82EE12CF12C95
:1013B0000E946C01681979098A099B09683E73408B
:1013C00081059105A8F321E0C21AD108E108F108CE
:1013D00088EE880E83E0981EA11CB11CC114D104B4
:1013E000E104F10429F780E090E0892B09F4DCCED8
:1013F0000E942D02882309F4D7CE0E940000D4CE8B
:101400000E94A30F89819A8190932A0480932904D2
:101410008B819C8190932C0480932B048D819E81E1
:1014200090932E0480932D041A8219821C821B82B1
:10143000FCCE0E944B036EE871E0CE0101960E9443
:10144000B704CE0101960E94C7038C01CE0101961C
:101450000E94120582E092E00E944903B80190E0E8
:1014600080E04AE00E94D6020E944B037801A3E08C
:10147000EA0EF11C8FE092E00E944903C7010E942E
:101480004F03B6E0EB16F1042CF481E292E00E94E7
:10149000700314CFA80141505109B801635071097C
:1014A000CE010D960E94C80482E392E00E94490397
:1014B000CE010D960E945D038D859E850097A1F05B
:1014C0000E94E80B8B01CB010E944F03E016F1064E
:1014D00079F081E292E00E9470030FEF1FEFCE01DE
:1014E0000D960E941205ECCE60E070E0CB01EACFD1
:1014F00046E050E064E070E0CE0107960E94C80428
:101500008BE392E00E944903CE0107960E945D039F
:101510008F819885009759F10E94E80B97FF2AC0A8
:101520000E941A030E944B034FE050E06DE070E010
:10153000CE0101960E94C8048BE492E00E94490308
:10154000CE0101960E945D0389819A810097B1F0D6
:101550000E94E80B8B01CB010E944F03CE01019644
:101560000E941205CE0107960E941205B8CF60E0D6
:1015700070E0CB014AE00E94D602D4CF60E070E078
:10158000CB01E8CF843608F4BECE10928B03BBCEDD
:101590008FE692E00E9470030230110509F0FECE42
:1015A000C0907C03D0907D03E0907E03F0907F0399
:1015B00066E872E0CE0107960E94B704A701960183
:1015C000BE01695F7F4FCE0101960E949905C090D0
:1015D0007803D0907903E0907A03F0907B036BE876
:1015E00072E0CE0143960E94B704A7019601BE01A6
:1015F0006D5E7F4FCE010D960E949905C0907403D9
:10160000D0907503E0907603F09077036FE872E076
:10161000CE014F960E94B704A7019601BE01615EFC
:101620007F4FCE0149960E949905C0907003D090DB
:101630007103E0907203F090730365E972E0CE01EC
:101640008B960E94B704A7019601BE01655D7F4F8E
:10165000CE0185960E949905C0906C03D0906D03D1
:10166000E0906E03F0906F036EE972E0CE01C796D2
:101670000E94B704A7019601BE01695C7F4FCE01AD
:10168000C1960E9499056AEA72E0CE01CD960E9449
:10169000B704BE016F5C7F4FCE01CD960E945F0400
:1016A0006CEA72E00E944904BE016B5D7F4F0E94AC
:1016B0005F046CEA72E00E944904BE01675E7F4FDE
:1016C0000E945F046CEA72E00E944904BE01635FFD
:1016D0007F4F0E945F046CEA72E00E944904BE01E1
:1016E0006F5F7F4F0E945F046CEA72E00E944904C2
:1016F0006EEA72E00E944904BC01CE018D5B9F4FEF
:101700000E949D04CE01CD960E941205CE01C19685
:101710000E941205CE01C7960E941205CE01859641
:101720000E941205CE018B960E941205CE014996A9
:101730000E941205CE014F960E941205CE010D9611
:101740000E941205CE0143960E941205CE01019619
:101750000E941205CE0107960E941205BE016D5B24
:101760007F4FCE0101960E949D04CE0101960E94FA
:101770001705CE0101960E941205CE018D5B9F4F89
:101780000E94120581E00E94240108CE89E294E0C3
:101790000C941205EF920F931F93CF93DF93E80100
:1017A00034E047FD34E1042E000C550B57FF03C015
:1017B000519541955109E32E022F242FAE010E942D
:1017C000490CCE01DF91CF911F910F91EF900895B9
:1017D0001F93FC0199278827BC01E89411911032CE
:1017E000E9F3193010F01E30C8F31B3251F01D32EE
:1017F00049F4689406C00E941A0C610F711D811D86
:10180000911D119110531A30B0F33EF490958095CC
:10181000709561957F4F8F4F9F4F1F910895BB2704
:101820004A3031F4992322F4BDE2909581959F4F7F
:101830000C94300C592F482F372F262F660F771F07
:10184000881F991F660F771F881F991F620F731FCC
:10185000841F951F660F771F881F991F0895BB2748
:10186000FB015527AA27880F991FAA1FA41710F05C
:10187000A41B83955051B9F7A05DAA3308F0A95D68
:10188000A193009779F7B111B1931192CB010C9408
:10189000800EA9E0B0E0EFE4FCE00C94960E6A0143
:1018A000F22EB02E102FFBE3AF2EA01608F41BE390
:1018B0001F5F012F27E0AE014F5F5F4F0E94A80D11
:1018C000BC018981982F9970913009F43FC09BE247
:1018D000E1FC04C09E2D9170E0FC3AC05E2D507179
:1018E000E82FE87083FF46C084E0911101C083E0D7
:1018F000EF2DE81B8F1508F0E0E0D6018E2F20E2D7
:10190000552351F1992329F0D6019C93C6010196E4
:101910006C0196012D5F3F4FE2FE24C08EE4D6019C
:101920008C9391E411969C93119712968C93D90104
:101930008E2F90E281111BC0E20FF32FF11D108258
:101940008EEF9FEF2996ECE00C94B20E9DE2C6CF8D
:1019500090E2C4CF2D9381508111FCCFCE0ED11CCB
:10196000E0E0D0CF8EE6D6018C9391E6DBCF9D935D
:101970008150E0CF482F447082FF3DC084E0911138
:1019800001C083E08F1510F4EF2DE81BD6018E2FD8
:1019900020E2552309F1992329F0D6019C93C60131
:1019A00001966C0196012D5F3F4FE2FE1BC089E45A
:1019B000D6018C938EE411968C93119786E412963F
:1019C0008C93D9018E2F90E2882309F4B5CF9D9393
:1019D0008150FACF2D9381508111FCCFCE0ED11CB6
:1019E000E0E0D9CF89E6D6018C938EE611968C93F0
:1019F000119786E6E4CF9B0177FF02C030E020E03C
:101A0000A1E0B0E0911102C0B0E0A0E0F901319690
:101A1000AE0FBF1F8B2C912CBB2009F461C0540169
:101A2000EFEFAE1ABE0AAA0DBB1DFA161B0619F07F
:101A300014F04F2D4A1B511188C0E3FC59C07601A8
:101A4000A42FB0E2A1114FC0C40ED11C992309F4F8
:101A50005BC040E0D6011196F60190836D015523DD
:101A600009F448C0012F060F9A81582F507184FF46
:101A700003C0913309F4015010160CF047C009302F
:101A800008F008E0EEE2FE2E5B01A01AB108850125
:101A90009194819491082F3F320729F4D601FC924A
:101AA000F60131966F016217730794F1021713075D
:101AB0007CF5DB01A21BB30BAA24A394B12CAC0EC2
:101AC000BD1EAA0DBB1D11968C9121503109D60166
:101AD000119628153905F4F0F60180836D01DBCFEE
:101AE000B12CA12CA0CFF701B1937F01A150AACFB7
:101AF0009111B0CFD601942F50E302C05D93915065
:101B00009111FCCFC40ED11C40E0ACCF01E0BACFA4
:101B100080E3DBCF6217730731F4963388F4953393
:101B200011F4552369F0F6018083FD01842F90E2C2
:101B3000811108C0A40FB11D1C9290E080E002CF7B
:101B400081E3F1CF91938150F3CF911183CF8ACF6D
:101B5000283008F027E03327DA01990F311D87FD7F
:101B6000916000966105710539F432602E5F3D93F6
:101B700030E32A95E1F708959F3F30F080387105F2
:101B8000610509F03C5F3C5F3D93913008F080684F
:101B9000911DDF93CF931F930F93FF92EF92192F15
:101BA000987F9695E92F96959695E90FFF27EE5326
:101BB000FF4F99273327EE24FF24A701E701059063
:101BC0000894079428F4360FE71EF81E491F511D8C
:101BD000660F771F881F991F0694A1F70590079439
:101BE00028F4E70EF81E491F561FC11D770F881FE6
:101BF000991F661F0694A1F70590079428F4F80E24
:101C0000491F561FC71FD11D880F991F661F771FB9
:101C10000694A1F70590079420F4490F561FC71F9B
:101C2000D81F990F661F771F881F0694A9F7849104
:101C30001095177041F0D695C79557954795F7942D
:101C4000E7941A95C1F7E8E6F0E0689415901591CD
:101C500035916591959105907FE27395E118F10AB0
:101C6000430B560BC90BD009C0F7E10CF11E431F03
:101C7000561FC91FD01D7EF4703311F48A95E6CF2C
:101C8000E894015030F0080F0AF40027021708F416
:101C9000202F2395022F7A3328F079E37D932A951C
:101CA000E9F710C07D932A9589F606949795679574
:101CB000379517951794E118F10A430B560BC90B8A
:101CC000D00998F023957E9173957A3308F070E3EC
:101CD0007C932013B8F77E9170617D9330F08395EB
:101CE00071E37D9370E32A95E1F71124EF90FF9063
:101CF0000F911F91CF91DF91992787FD90950895BE
:101D0000DC01FC01672F71917723E1F7329704C062
:101D10007C916D9370836291AE17BF07C8F30895ED
:101D20002F923F924F925F926F927F928F929F92EB
:101D3000AF92BF92CF92DF92EF92FF920F931F93D9
:101D4000CF93DF93CDB7DEB7CA1BDB0B0FB6F8948A
:101D5000DEBF0FBECDBF09942A88398848885F84CA
:101D60006E847D848C849B84AA84B984C884DF803B
:101D7000EE80FD800C811B81AA81B981CE0FD11D1F
:101D80000FB6F894DEBF0FBECDBFED010895A1E2FE
:101D90001A2EAA1BBB1BFD010DC0AA1FBB1FEE1FE5
:101DA000FF1FA217B307E407F50720F0A21BB30B30
:101DB000E40BF50B661F771F881F991F1A9469F7AC
:101DC00060957095809590959B01AC01BD01CF0108
:101DD00008950024A7FD00942A0F301D401D501DBA
:101DE000601D701D801D901D08950024A7FD0094A6
:101DF0002A173005400550056005700580059005DF
:101E00000895EE0FFF1F0590F491E02D09940F93B4
:101E10001F93CF93DF938230910510F482E090E01E
:101E2000E0913104F091320430E020E0B0E0A0E035
:101E3000309799F42115310509F44AC0281B390B54
:101E400024303105D8F58A819B816115710589F1AE
:101E5000FB0193838283FE0111C040815181028185
:101E6000138148175907E0F04817590799F410975C
:101E700061F012960C93129713961C933296CF0131
:101E8000DF91CF911F910F9108950093310410932A
:101E90003204F4CF2115310551F04217530738F0C1
:101EA000A901DB019A01BD01DF01F801C1CFEF01FA
:101EB000F9CF9093320480933104CDCFFE01E20F2D
:101EC000F31F819391932250310939832883D7CF0F
:101ED00020912F0430913004232B41F420910201F2
:101EE000309103013093300420932F04209100019E
:101EF000309101012115310541F42DB73EB74091D4
:101F0000040150910501241B350BE0912F04F09141
:101F10003004E217F307A0F42E1B3F0B28173907F4
:101F200078F0AC014E5F5F4F2417350748F04E0F35
:101F30005F1F5093300440932F04819391939FCF60
:101F4000F0E0E0E09CCFCF93DF930097E9F0FC0155
:101F5000329713821282A0913104B0913204ED01C4
:101F600030E020E01097A1F420813181820F931F8F
:101F700020912F04309130042817390709F061C0EF
:101F8000F0933004E0932F04DF91CF910895EA019C
:101F9000CE17DF07E8F54A815B819E0141155105A7
:101FA000B1F7E901FB83EA8349915991C40FD51F29
:101FB000EC17FD0761F4808191810296840F951FD3
:101FC000E90199838883828193819B838A83F0E0EE
:101FD000E0E012968D919C9113970097B9F52D91A1
:101FE0003C911197CD010296820F931F20912F04EF
:101FF000309130042817390739F6309751F510928F
:10200000320410923104B0933004A0932F04BCCF5B
:10201000D383C28340815181840F951FC817D9078C
:1020200061F44E5F5F4F88819981480F591F51833A
:1020300040838A819B81938382832115310509F036
:10204000B0CFF0933204E09331049ECFFD01DC0168
:10205000C0CF13821282D7CFB0E0A0E0E2E3F0E17C
:102060000C94920E8C01009751F4CB010E94070F43
:102070008C01C801CDB7DEB7E0E10C94AE0EFC01D7
:10208000E60FF71F9C0122503109E217F30708F40D
:102090009DC0D901CD91DC911197C617D70798F053
:1020A000C530D10530F3CE0104978617970708F3A2
:1020B000C61BD70B2297C193D1936D937C93CF010D
:1020C0000E94A30FD6CF5B01AC1ABD0A4C018C0E47
:1020D0009D1EA0913104B0913204512C412CF12C61
:1020E000E12C109731F580912F04909130048815E0
:1020F000990509F05CC04616570608F058C0809153
:10210000000190910101009741F48DB79EB7409175
:10211000040150910501841B950BE817F90708F09D
:1021200055C0F0933004E0932F04F901718360836C
:10213000A0CF8D919C91119712966C901297139647
:102140007C901397A815B90559F56C0142E0C40EAF
:10215000D11CCA14DB0420F1AC014A195B09DA0175
:102160001296159780F06282738251834083D90161
:102170006D937C93E114F10471F0D7011396FC93F5
:10218000EE93129776CF22968C0F9D1FF9019183C3
:102190008083F301EFCFF0933204E093310469CFF1
:1021A0004816590608F42C017D01D3019ACFCB01C2
:1021B0000E94070F7C01009749F0AE01B8010E9410
:1021C000E910C8010E94A30F870153CF10E000E07F
:1021D00050CFFB01DC0102C001900D9241505040F4
:1021E000D8F70895FB01DC0101900D920020E1F782
:1021F0000895FB0151915523A9F0BF01DC014D91D8
:1022000045174111E1F759F4CD010190002049F043
:102210004D9140154111C9F3FB014111EFCF81E010
:1022200090E00197089510E0CAEDD0E004C0FE01EF
:102230000E94010F2196CB3DD107C9F7F894FFCF3B
:10224000000033048000B803A9039A038B037C03C6
:10225000E8030000F2030000FC0300000604000095
:102260001004000000000000620292012102BF0180
:102270001302A9020D0A0047657420676173205498
:102280004F444F00476574206C6967687420544F51
:10229000444F00476574206475737420544F444F55
:1022A000004765742068756D696469747920544FBE
:1022B000444F004765742074656D70657261747574
:1022C000726520544F444F00535458003000455419
:1022D0005800207B2022626F784944223A20002C4B
:1022E000202273656E736F7254797065223A2022D2
:1022F000002220002C2276616C7565223A20007D38
:10230000002D2D2D2D2D2D2D2D2D2D2D2D2D2D2D2A
:102310002D2D2D2D2D2D2D2D2D2D2D0053545820AF
:10232000666F756E64206174002121212050414345
:102330004B4554204E4F542056414C4944202121B6
:10234000210045545820666F756E64206174002D1D
:102350002D4D657373616765206C656E6774683AAF
:10236000005041434B4554204E4F542056414C4958
:102370004400436865636B756D3A005061636B613F
:10238000676520636F756E74657200547970653A85
:1023900000526563656976656420636F6D6D616E7B
:1023A000645F747970653A0048656C6C6F21004316
:1023B0006F6E6E656374696F6E2065737461626CB5
:1023C0006973686564006475737400676173006C99
:1023D000696768740068756D69646974790074650B
:1023E0006D7065726174757265005B002C005D0034
:00000001FF
